{
  "_format": "hh-sol-artifact-1",
  "contractName": "DigitalTwin",
  "sourceName": "contracts/DigitalTwin.sol",
  "abi": [
    {
      "inputs": [
        {
          "internalType": "address",
          "name": "_b3trTokenAddress",
          "type": "address"
        }
      ],
      "stateMutability": "nonpayable",
      "type": "constructor"
    },
    {
      "inputs": [],
      "name": "AccessControlBadConfirmation",
      "type": "error"
    },
    {
      "inputs": [
        {
          "internalType": "address",
          "name": "account",
          "type": "address"
        },
        {
          "internalType": "bytes32",
          "name": "neededRole",
          "type": "bytes32"
        }
      ],
      "name": "AccessControlUnauthorizedAccount",
      "type": "error"
    },
    {
      "inputs": [],
      "name": "ERC721EnumerableForbiddenBatchMint",
      "type": "error"
    },
    {
      "inputs": [
        {
          "internalType": "address",
          "name": "sender",
          "type": "address"
        },
        {
          "internalType": "uint256",
          "name": "tokenId",
          "type": "uint256"
        },
        {
          "internalType": "address",
          "name": "owner",
          "type": "address"
        }
      ],
      "name": "ERC721IncorrectOwner",
      "type": "error"
    },
    {
      "inputs": [
        {
          "internalType": "address",
          "name": "operator",
          "type": "address"
        },
        {
          "internalType": "uint256",
          "name": "tokenId",
          "type": "uint256"
        }
      ],
      "name": "ERC721InsufficientApproval",
      "type": "error"
    },
    {
      "inputs": [
        {
          "internalType": "address",
          "name": "approver",
          "type": "address"
        }
      ],
      "name": "ERC721InvalidApprover",
      "type": "error"
    },
    {
      "inputs": [
        {
          "internalType": "address",
          "name": "operator",
          "type": "address"
        }
      ],
      "name": "ERC721InvalidOperator",
      "type": "error"
    },
    {
      "inputs": [
        {
          "internalType": "address",
          "name": "owner",
          "type": "address"
        }
      ],
      "name": "ERC721InvalidOwner",
      "type": "error"
    },
    {
      "inputs": [
        {
          "internalType": "address",
          "name": "receiver",
          "type": "address"
        }
      ],
      "name": "ERC721InvalidReceiver",
      "type": "error"
    },
    {
      "inputs": [
        {
          "internalType": "address",
          "name": "sender",
          "type": "address"
        }
      ],
      "name": "ERC721InvalidSender",
      "type": "error"
    },
    {
      "inputs": [
        {
          "internalType": "uint256",
          "name": "tokenId",
          "type": "uint256"
        }
      ],
      "name": "ERC721NonexistentToken",
      "type": "error"
    },
    {
      "inputs": [
        {
          "internalType": "address",
          "name": "owner",
          "type": "address"
        },
        {
          "internalType": "uint256",
          "name": "index",
          "type": "uint256"
        }
      ],
      "name": "ERC721OutOfBoundsIndex",
      "type": "error"
    },
    {
      "inputs": [
        {
          "internalType": "uint256",
          "name": "value",
          "type": "uint256"
        },
        {
          "internalType": "uint256",
          "name": "length",
          "type": "uint256"
        }
      ],
      "name": "StringsInsufficientHexLength",
      "type": "error"
    },
    {
      "anonymous": false,
      "inputs": [
        {
          "indexed": true,
          "internalType": "address",
          "name": "owner",
          "type": "address"
        },
        {
          "indexed": true,
          "internalType": "address",
          "name": "approved",
          "type": "address"
        },
        {
          "indexed": true,
          "internalType": "uint256",
          "name": "tokenId",
          "type": "uint256"
        }
      ],
      "name": "Approval",
      "type": "event"
    },
    {
      "anonymous": false,
      "inputs": [
        {
          "indexed": true,
          "internalType": "address",
          "name": "owner",
          "type": "address"
        },
        {
          "indexed": true,
          "internalType": "address",
          "name": "operator",
          "type": "address"
        },
        {
          "indexed": false,
          "internalType": "bool",
          "name": "approved",
          "type": "bool"
        }
      ],
      "name": "ApprovalForAll",
      "type": "event"
    },
    {
      "anonymous": false,
      "inputs": [
        {
          "indexed": false,
          "internalType": "uint256",
          "name": "_fromTokenId",
          "type": "uint256"
        },
        {
          "indexed": false,
          "internalType": "uint256",
          "name": "_toTokenId",
          "type": "uint256"
        }
      ],
      "name": "BatchMetadataUpdate",
      "type": "event"
    },
    {
      "anonymous": false,
      "inputs": [
        {
          "indexed": true,
          "internalType": "uint256",
          "name": "tokenId",
          "type": "uint256"
        },
        {
          "indexed": false,
          "internalType": "string",
          "name": "eventDescription",
          "type": "string"
        },
        {
          "indexed": true,
          "internalType": "address",
          "name": "actor",
          "type": "address"
        }
      ],
      "name": "HistoryLogged",
      "type": "event"
    },
    {
      "anonymous": false,
      "inputs": [
        {
          "indexed": false,
          "internalType": "uint256",
          "name": "_tokenId",
          "type": "uint256"
        }
      ],
      "name": "MetadataUpdate",
      "type": "event"
    },
    {
      "anonymous": false,
      "inputs": [
        {
          "indexed": true,
          "internalType": "bytes32",
          "name": "role",
          "type": "bytes32"
        },
        {
          "indexed": true,
          "internalType": "bytes32",
          "name": "previousAdminRole",
          "type": "bytes32"
        },
        {
          "indexed": true,
          "internalType": "bytes32",
          "name": "newAdminRole",
          "type": "bytes32"
        }
      ],
      "name": "RoleAdminChanged",
      "type": "event"
    },
    {
      "anonymous": false,
      "inputs": [
        {
          "indexed": true,
          "internalType": "bytes32",
          "name": "role",
          "type": "bytes32"
        },
        {
          "indexed": true,
          "internalType": "address",
          "name": "account",
          "type": "address"
        },
        {
          "indexed": true,
          "internalType": "address",
          "name": "sender",
          "type": "address"
        }
      ],
      "name": "RoleGranted",
      "type": "event"
    },
    {
      "anonymous": false,
      "inputs": [
        {
          "indexed": true,
          "internalType": "bytes32",
          "name": "role",
          "type": "bytes32"
        },
        {
          "indexed": true,
          "internalType": "address",
          "name": "account",
          "type": "address"
        },
        {
          "indexed": true,
          "internalType": "address",
          "name": "sender",
          "type": "address"
        }
      ],
      "name": "RoleRevoked",
      "type": "event"
    },
    {
      "anonymous": false,
      "inputs": [
        {
          "indexed": true,
          "internalType": "address",
          "name": "from",
          "type": "address"
        },
        {
          "indexed": true,
          "internalType": "address",
          "name": "to",
          "type": "address"
        },
        {
          "indexed": true,
          "internalType": "uint256",
          "name": "tokenId",
          "type": "uint256"
        }
      ],
      "name": "Transfer",
      "type": "event"
    },
    {
      "inputs": [],
      "name": "BRAND_ROLE",
      "outputs": [
        {
          "internalType": "bytes32",
          "name": "",
          "type": "bytes32"
        }
      ],
      "stateMutability": "view",
      "type": "function"
    },
    {
      "inputs": [],
      "name": "DEFAULT_ADMIN_ROLE",
      "outputs": [
        {
          "internalType": "bytes32",
          "name": "",
          "type": "bytes32"
        }
      ],
      "stateMutability": "view",
      "type": "function"
    },
    {
      "inputs": [],
      "name": "RECYCLING_PARTNER_ROLE",
      "outputs": [
        {
          "internalType": "bytes32",
          "name": "",
          "type": "bytes32"
        }
      ],
      "stateMutability": "view",
      "type": "function"
    },
    {
      "inputs": [
        {
          "internalType": "address",
          "name": "to",
          "type": "address"
        },
        {
          "internalType": "uint256",
          "name": "tokenId",
          "type": "uint256"
        }
      ],
      "name": "approve",
      "outputs": [],
      "stateMutability": "nonpayable",
      "type": "function"
    },
    {
      "inputs": [],
      "name": "b3trToken",
      "outputs": [
        {
          "internalType": "contract ERC20",
          "name": "",
          "type": "address"
        }
      ],
      "stateMutability": "view",
      "type": "function"
    },
    {
      "inputs": [
        {
          "internalType": "address",
          "name": "owner",
          "type": "address"
        }
      ],
      "name": "balanceOf",
      "outputs": [
        {
          "internalType": "uint256",
          "name": "",
          "type": "uint256"
        }
      ],
      "stateMutability": "view",
      "type": "function"
    },
    {
      "inputs": [
        {
          "internalType": "uint256",
          "name": "tokenId",
          "type": "uint256"
        }
      ],
      "name": "getApproved",
      "outputs": [
        {
          "internalType": "address",
          "name": "",
          "type": "address"
        }
      ],
      "stateMutability": "view",
      "type": "function"
    },
    {
      "inputs": [
        {
          "internalType": "uint256",
          "name": "tokenId",
          "type": "uint256"
        }
      ],
      "name": "getHistory",
      "outputs": [
        {
          "components": [
            {
              "internalType": "uint256",
              "name": "timestamp",
              "type": "uint256"
            },
            {
              "internalType": "string",
              "name": "eventDescription",
              "type": "string"
            },
            {
              "internalType": "address",
              "name": "actor",
              "type": "address"
            }
          ],
          "internalType": "struct DigitalTwin.ProductHistory[]",
          "name": "",
          "type": "tuple[]"
        }
      ],
      "stateMutability": "view",
      "type": "function"
    },
    {
      "inputs": [
        {
          "internalType": "bytes32",
          "name": "role",
          "type": "bytes32"
        }
      ],
      "name": "getRoleAdmin",
      "outputs": [
        {
          "internalType": "bytes32",
          "name": "",
          "type": "bytes32"
        }
      ],
      "stateMutability": "view",
      "type": "function"
    },
    {
      "inputs": [
        {
          "internalType": "bytes32",
          "name": "role",
          "type": "bytes32"
        },
        {
          "internalType": "address",
          "name": "account",
          "type": "address"
        }
      ],
      "name": "grantRole",
      "outputs": [],
      "stateMutability": "nonpayable",
      "type": "function"
    },
    {
      "inputs": [
        {
          "internalType": "bytes32",
          "name": "role",
          "type": "bytes32"
        },
        {
          "internalType": "address",
          "name": "account",
          "type": "address"
        }
      ],
      "name": "hasRole",
      "outputs": [
        {
          "internalType": "bool",
          "name": "",
          "type": "bool"
        }
      ],
      "stateMutability": "view",
      "type": "function"
    },
    {
      "inputs": [
        {
          "internalType": "uint256",
          "name": "",
          "type": "uint256"
        },
        {
          "internalType": "uint256",
          "name": "",
          "type": "uint256"
        }
      ],
      "name": "historyLog",
      "outputs": [
        {
          "internalType": "uint256",
          "name": "timestamp",
          "type": "uint256"
        },
        {
          "internalType": "string",
          "name": "eventDescription",
          "type": "string"
        },
        {
          "internalType": "address",
          "name": "actor",
          "type": "address"
        }
      ],
      "stateMutability": "view",
      "type": "function"
    },
    {
      "inputs": [
        {
          "internalType": "address",
          "name": "owner",
          "type": "address"
        },
        {
          "internalType": "address",
          "name": "operator",
          "type": "address"
        }
      ],
      "name": "isApprovedForAll",
      "outputs": [
        {
          "internalType": "bool",
          "name": "",
          "type": "bool"
        }
      ],
      "stateMutability": "view",
      "type": "function"
    },
    {
      "inputs": [
        {
          "internalType": "uint256",
          "name": "",
          "type": "uint256"
        }
      ],
      "name": "isRetired",
      "outputs": [
        {
          "internalType": "bool",
          "name": "",
          "type": "bool"
        }
      ],
      "stateMutability": "view",
      "type": "function"
    },
    {
      "inputs": [
        {
          "internalType": "uint256",
          "name": "tokenId",
          "type": "uint256"
        },
        {
          "internalType": "string",
          "name": "eventDescription",
          "type": "string"
        }
      ],
      "name": "logHistory",
      "outputs": [],
      "stateMutability": "nonpayable",
      "type": "function"
    },
    {
      "inputs": [],
      "name": "name",
      "outputs": [
        {
          "internalType": "string",
          "name": "",
          "type": "string"
        }
      ],
      "stateMutability": "view",
      "type": "function"
    },
    {
      "inputs": [
        {
          "internalType": "uint256",
          "name": "tokenId",
          "type": "uint256"
        }
      ],
      "name": "ownerOf",
      "outputs": [
        {
          "internalType": "address",
          "name": "",
          "type": "address"
        }
      ],
      "stateMutability": "view",
      "type": "function"
    },
    {
      "inputs": [
        {
          "internalType": "bytes32",
          "name": "role",
          "type": "bytes32"
        },
        {
          "internalType": "address",
          "name": "callerConfirmation",
          "type": "address"
        }
      ],
      "name": "renounceRole",
      "outputs": [],
      "stateMutability": "nonpayable",
      "type": "function"
    },
    {
      "inputs": [
        {
          "internalType": "uint256",
          "name": "tokenId",
          "type": "uint256"
        }
      ],
      "name": "retire",
      "outputs": [],
      "stateMutability": "nonpayable",
      "type": "function"
    },
    {
      "inputs": [
        {
          "internalType": "uint256",
          "name": "tokenId",
          "type": "uint256"
        },
        {
          "internalType": "address",
          "name": "sponsorAddress",
          "type": "address"
        }
      ],
      "name": "retireAndSponsor",
      "outputs": [],
      "stateMutability": "nonpayable",
      "type": "function"
    },
    {
      "inputs": [
        {
          "internalType": "bytes32",
          "name": "role",
          "type": "bytes32"
        },
        {
          "internalType": "address",
          "name": "account",
          "type": "address"
        }
      ],
      "name": "revokeRole",
      "outputs": [],
      "stateMutability": "nonpayable",
      "type": "function"
    },
    {
      "inputs": [],
      "name": "rewardAmount",
      "outputs": [
        {
          "internalType": "uint256",
          "name": "",
          "type": "uint256"
        }
      ],
      "stateMutability": "view",
      "type": "function"
    },
    {
      "inputs": [
        {
          "internalType": "address",
          "name": "to",
          "type": "address"
        },
        {
          "internalType": "string",
          "name": "uri",
          "type": "string"
        }
      ],
      "name": "safeMint",
      "outputs": [
        {
          "internalType": "uint256",
          "name": "",
          "type": "uint256"
        }
      ],
      "stateMutability": "nonpayable",
      "type": "function"
    },
    {
      "inputs": [
        {
          "internalType": "address",
          "name": "from",
          "type": "address"
        },
        {
          "internalType": "address",
          "name": "to",
          "type": "address"
        },
        {
          "internalType": "uint256",
          "name": "tokenId",
          "type": "uint256"
        }
      ],
      "name": "safeTransferFrom",
      "outputs": [],
      "stateMutability": "nonpayable",
      "type": "function"
    },
    {
      "inputs": [
        {
          "internalType": "address",
          "name": "from",
          "type": "address"
        },
        {
          "internalType": "address",
          "name": "to",
          "type": "address"
        },
        {
          "internalType": "uint256",
          "name": "tokenId",
          "type": "uint256"
        },
        {
          "internalType": "bytes",
          "name": "data",
          "type": "bytes"
        }
      ],
      "name": "safeTransferFrom",
      "outputs": [],
      "stateMutability": "nonpayable",
      "type": "function"
    },
    {
      "inputs": [
        {
          "internalType": "address",
          "name": "operator",
          "type": "address"
        },
        {
          "internalType": "bool",
          "name": "approved",
          "type": "bool"
        }
      ],
      "name": "setApprovalForAll",
      "outputs": [],
      "stateMutability": "nonpayable",
      "type": "function"
    },
    {
      "inputs": [
        {
          "internalType": "bytes4",
          "name": "interfaceId",
          "type": "bytes4"
        }
      ],
      "name": "supportsInterface",
      "outputs": [
        {
          "internalType": "bool",
          "name": "",
          "type": "bool"
        }
      ],
      "stateMutability": "view",
      "type": "function"
    },
    {
      "inputs": [],
      "name": "symbol",
      "outputs": [
        {
          "internalType": "string",
          "name": "",
          "type": "string"
        }
      ],
      "stateMutability": "view",
      "type": "function"
    },
    {
      "inputs": [
        {
          "internalType": "uint256",
          "name": "index",
          "type": "uint256"
        }
      ],
      "name": "tokenByIndex",
      "outputs": [
        {
          "internalType": "uint256",
          "name": "",
          "type": "uint256"
        }
      ],
      "stateMutability": "view",
      "type": "function"
    },
    {
      "inputs": [
        {
          "internalType": "address",
          "name": "owner",
          "type": "address"
        },
        {
          "internalType": "uint256",
          "name": "index",
          "type": "uint256"
        }
      ],
      "name": "tokenOfOwnerByIndex",
      "outputs": [
        {
          "internalType": "uint256",
          "name": "",
          "type": "uint256"
        }
      ],
      "stateMutability": "view",
      "type": "function"
    },
    {
      "inputs": [
        {
          "internalType": "uint256",
          "name": "tokenId",
          "type": "uint256"
        }
      ],
      "name": "tokenURI",
      "outputs": [
        {
          "internalType": "string",
          "name": "",
          "type": "string"
        }
      ],
      "stateMutability": "view",
      "type": "function"
    },
    {
      "inputs": [],
      "name": "totalSupply",
      "outputs": [
        {
          "internalType": "uint256",
          "name": "",
          "type": "uint256"
        }
      ],
      "stateMutability": "view",
      "type": "function"
    },
    {
      "inputs": [
        {
          "internalType": "address",
          "name": "from",
          "type": "address"
        },
        {
          "internalType": "address",
          "name": "to",
          "type": "address"
        },
        {
          "internalType": "uint256",
          "name": "tokenId",
          "type": "uint256"
        }
      ],
      "name": "transferFrom",
      "outputs": [],
      "stateMutability": "nonpayable",
      "type": "function"
    }
  ],
  "bytecode": "0x60806040523480156200001157600080fd5b5060405162002b1938038062002b19833981016040819052620000349162000271565b6040518060400160405280601381526020017f52654c6f6f70204469676974616c205477696e0000000000000000000000000081525060405180604001604052806006815260200165052454c4f4f560d41b81525081600090816200009a919062000348565b506001620000a9828262000348565b50506000600c819055620000bf915033620001be565b50620000ec7fd52b9622fe3ce468afb95246111fe2ff28de74ab22e427623dca2ad2172e5f5933620001be565b50620001197fa8e30fca2176e053b4b31790115bf04fcbbc860e7de25c31c34281fa37e0015d33620001be565b50600f80546001600160a01b0319166001600160a01b0383169081179091556040805163313ce56760e01b8152905163313ce567916004808201926020929091908290030181865afa15801562000174573d6000803e3d6000fd5b505050506040513d601f19601f820116820180604052508101906200019a919062000414565b620001a790600a6200054c565b620001b490600a6200055d565b6010555062000577565b6000828152600b602090815260408083206001600160a01b038516845290915281205460ff1662000267576000838152600b602090815260408083206001600160a01b03861684529091529020805460ff191660011790556200021e3390565b6001600160a01b0316826001600160a01b0316847f2f8788117e7eff1d82e926ec794901d17c78024a50270940304540a733656f0d60405160405180910390a45060016200026b565b5060005b92915050565b6000602082840312156200028457600080fd5b81516001600160a01b03811681146200029c57600080fd5b9392505050565b634e487b7160e01b600052604160045260246000fd5b600181811c90821680620002ce57607f821691505b602082108103620002ef57634e487b7160e01b600052602260045260246000fd5b50919050565b601f8211156200034357600081815260208120601f850160051c810160208610156200031e5750805b601f850160051c820191505b818110156200033f578281556001016200032a565b5050505b505050565b81516001600160401b03811115620003645762000364620002a3565b6200037c81620003758454620002b9565b84620002f5565b602080601f831160018114620003b457600084156200039b5750858301515b600019600386901b1c1916600185901b1785556200033f565b600085815260208120601f198616915b82811015620003e557888601518255948401946001909101908401620003c4565b5085821015620004045787850151600019600388901b60f8161c191681555b5050505050600190811b01905550565b6000602082840312156200042757600080fd5b815160ff811681146200029c57600080fd5b634e487b7160e01b600052601160045260246000fd5b600181815b808511156200049057816000190482111562000474576200047462000439565b808516156200048257918102915b93841c939080029062000454565b509250929050565b600082620004a9575060016200026b565b81620004b8575060006200026b565b8160018114620004d15760028114620004dc57620004fc565b60019150506200026b565b60ff841115620004f057620004f062000439565b50506001821b6200026b565b5060208310610133831016604e8410600b841016171562000521575081810a6200026b565b6200052d83836200044f565b806000190482111562000544576200054462000439565b029392505050565b60006200029c60ff84168362000498565b80820281158282048414176200026b576200026b62000439565b61259280620005876000396000f3fe608060405234801561001057600080fd5b50600436106101fb5760003560e01c80636352211e1161011a578063b88d4fde116100ad578063d204c45e1161007c578063d204c45e1461047e578063d547741f14610491578063e985e9c5146104a4578063ec9f391b146104b7578063f7b2a7be146104de57600080fd5b8063b88d4fde14610415578063c8691b2a14610428578063c87b56dd14610448578063cf6ebee71461045b57600080fd5b806394f18d7d116100e957806394f18d7d146103df57806395d89b41146103f2578063a217fddf146103fa578063a22cb4651461040257600080fd5b80636352211e1461039357806370a08231146103a6578063906a8ea3146103b957806391d14854146103cc57600080fd5b80632f2ff15d116101925780633790cf57116101615780633790cf571461033857806339f65c051461034b57806342842e0e1461036d5780634f6ccce71461038057600080fd5b80632f2ff15d146102d85780632f745c59146102eb57806336568abe146102fe5780633711e8f61461031157600080fd5b806318160ddd116101ce57806318160ddd1461027d5780631dbbc1641461028f57806323b872dd146102a2578063248a9ca3146102b557600080fd5b806301ffc9a71461020057806306fdde0314610228578063081812fc1461023d578063095ea7b314610268575b600080fd5b61021361020e366004611e24565b6104e7565b60405190151581526020015b60405180910390f35b6102306104f8565b60405161021f9190611e91565b61025061024b366004611ea4565b61058a565b6040516001600160a01b03909116815260200161021f565b61027b610276366004611ed9565b6105b3565b005b6009545b60405190815260200161021f565b600f54610250906001600160a01b031681565b61027b6102b0366004611f03565b6105c2565b6102816102c3366004611ea4565b6000908152600b602052604090206001015490565b61027b6102e6366004611f3f565b610652565b6102816102f9366004611ed9565b610677565b61027b61030c366004611f3f565b6106dc565b6102817fd52b9622fe3ce468afb95246111fe2ff28de74ab22e427623dca2ad2172e5f5981565b61027b610346366004611ea4565b610714565b61035e610359366004611f6b565b610721565b60405161021f93929190611f8d565b61027b61037b366004611f03565b6107f9565b61028161038e366004611ea4565b610814565b6102506103a1366004611ea4565b61086d565b6102816103b4366004611fbe565b610878565b61027b6103c7366004612085565b6108c0565b6102136103da366004611f3f565b6108f5565b61027b6103ed366004611f3f565b610920565b6102306109e4565b610281600081565b61027b6104103660046120da565b6109f3565b61027b610423366004612111565b6109fe565b61043b610436366004611ea4565b610a16565b60405161021f919061218d565b610230610456366004611ea4565b610b3a565b610213610469366004611ea4565b600e6020526000908152604090205460ff1681565b61028161048c366004612217565b610b45565b61027b61049f366004611f3f565b610ba1565b6102136104b236600461224f565b610bc6565b6102817fa8e30fca2176e053b4b31790115bf04fcbbc860e7de25c31c34281fa37e0015d81565b61028160105481565b60006104f282610bf4565b92915050565b60606000805461050790612279565b80601f016020809104026020016040519081016040528092919081815260200182805461053390612279565b80156105805780601f1061055557610100808354040283529160200191610580565b820191906000526020600020905b81548152906001019060200180831161056357829003601f168201915b5050505050905090565b600061059582610c19565b506000828152600460205260409020546001600160a01b03166104f2565b6105be828233610c52565b5050565b6001600160a01b0382166105f157604051633250574960e11b8152600060048201526024015b60405180910390fd5b60006105fe838333610c5f565b9050836001600160a01b0316816001600160a01b03161461064c576040516364283d7b60e01b81526001600160a01b03808616600483015260248201849052821660448201526064016105e8565b50505050565b6000828152600b602052604090206001015461066d81610d2b565b61064c8383610d35565b600061068283610878565b82106106b35760405163295f44f760e21b81526001600160a01b0384166004820152602481018390526044016105e8565b506001600160a01b03919091166000908152600760209081526040808320938352929052205490565b6001600160a01b03811633146107055760405163334bd91960e11b815260040160405180910390fd5b61070f8282610dc9565b505050565b61071e8133610e36565b50565b600d602052816000526040600020818154811061073d57600080fd5b90600052602060002090600302016000915091505080600001549080600101805461076790612279565b80601f016020809104026020016040519081016040528092919081815260200182805461079390612279565b80156107e05780601f106107b5576101008083540402835291602001916107e0565b820191906000526020600020905b8154815290600101906020018083116107c357829003601f168201915b505050600290930154919250506001600160a01b031683565b61070f838383604051806020016040528060008152506109fe565b600061081f60095490565b82106108485760405163295f44f760e21b815260006004820152602481018390526044016105e8565b6009828154811061085b5761085b6122b3565b90600052602060002001549050919050565b60006104f282610c19565b60006001600160a01b0382166108a4576040516322718ad960e21b8152600060048201526024016105e8565b506001600160a01b031660009081526003602052604090205490565b7fd52b9622fe3ce468afb95246111fe2ff28de74ab22e427623dca2ad2172e5f596108ea81610d2b565b61070f83833361103a565b6000918252600b602090815260408084206001600160a01b0393909316845291905290205460ff1690565b61094a7fd52b9622fe3ce468afb95246111fe2ff28de74ab22e427623dca2ad2172e5f59826108f5565b6109a85760405162461bcd60e51b815260206004820152602960248201527f4469676974616c5477696e3a2053706f6e736f72206d7573742068617665204260448201526852414e445f524f4c4560b81b60648201526084016105e8565b6109da826109b583611101565b6040516020016109c591906122c9565b6040516020818303038152906040528361103a565b6105be8233610e36565b60606001805461050790612279565b6105be338383611117565b610a098484846105c2565b61064c33858585856111ae565b6060600d6000838152602001908152602001600020805480602002602001604051908101604052809291908181526020016000905b82821015610b2f578382906000526020600020906003020160405180606001604052908160008201548152602001600182018054610a8890612279565b80601f0160208091040260200160405190810160405280929190818152602001828054610ab490612279565b8015610b015780601f10610ad657610100808354040283529160200191610b01565b820191906000526020600020905b815481529060010190602001808311610ae457829003601f168201915b5050509183525050600291909101546001600160a01b03166020918201529082526001929092019101610a4b565b505050509050919050565b60606104f2826112d9565b600c8054600091819083610b5883612314565b9190505550610b6784826113ea565b610b718184611404565b610b9a8160405180604001604052806006815260200165135a5b9d195960d21b8152503361103a565b9392505050565b6000828152600b6020526040902060010154610bbc81610d2b565b61064c8383610dc9565b6001600160a01b03918216600090815260056020908152604080832093909416825291909152205460ff1690565b60006001600160e01b03198216637965db0b60e01b14806104f257506104f282611454565b6000818152600260205260408120546001600160a01b0316806104f257604051637e27328960e01b8152600481018490526024016105e8565b61070f8383836001611479565b600082815260026020908152604080832054600e9092528220546001600160a01b039091169060ff168015610c9c57506001600160a01b03811615155b8015610cb057506001600160a01b03851615155b15610d175760405162461bcd60e51b815260206004820152603160248201527f4469676974616c5477696e3a205265746972656420746f6b656e732063616e6e6044820152701bdd081899481d1c985b9cd9995c9c9959607a1b60648201526084016105e8565b610d2285858561157f565b95945050505050565b61071e813361164c565b6000610d4183836108f5565b610dc1576000838152600b602090815260408083206001600160a01b03861684529091529020805460ff19166001179055610d793390565b6001600160a01b0316826001600160a01b0316847f2f8788117e7eff1d82e926ec794901d17c78024a50270940304540a733656f0d60405160405180910390a45060016104f2565b5060006104f2565b6000610dd583836108f5565b15610dc1576000838152600b602090815260408083206001600160a01b0386168085529252808320805460ff1916905551339286917ff6391f5c32d9c69d2a47ea670b442974b53935d1edc7fd64eb21e047a839171b9190a45060016104f2565b6000610e418361086d565b90506001600160a01b038116610eab5760405162461bcd60e51b815260206004820152602960248201527f4552433732313a206f776e657220717565727920666f72206e6f6e657869737460448201526832b73a103a37b5b2b760b91b60648201526084016105e8565b610ed68360405180604001604052806008815260200167149958de58db195960c21b8152508461103a565b601054600f546040516370a0823160e01b81523060048201526001600160a01b03909116906370a0823190602401602060405180830381865afa158015610f21573d6000803e3d6000fd5b505050506040513d601f19601f82011682018060405250810190610f45919061232d565b1015610fa25760405162461bcd60e51b815260206004820152602660248201527f436f6e74726163742068617320696e73756666696369656e7420423354522062604482015265616c616e636560d01b60648201526084016105e8565b600f5460105460405163a9059cbb60e01b81526001600160a01b038481166004830152602482019290925291169063a9059cbb906044016020604051808303816000875af1158015610ff8573d6000803e3d6000fd5b505050506040513d601f19601f8201168201806040525081019061101c9190612346565b5050506000908152600e60205260409020805460ff19166001179055565b6000838152600d6020908152604080832081516060810183524281528084018781526001600160a01b0387169382019390935281546001818101845592865293909420845160039094020192835590519082019061109890826123a9565b5060409182015160029190910180546001600160a01b0319166001600160a01b0392831617905590519082169084907f99d4d5ece1a51967c5b860030e4bff1e57d13f847db95071f51e59bc9aa38a6c906110f4908690611e91565b60405180910390a3505050565b60606104f26001600160a01b0383166014611685565b6001600160a01b03821661114957604051630b61174360e31b81526001600160a01b03831660048201526024016105e8565b6001600160a01b03838116600081815260056020908152604080832094871680845294825291829020805460ff191686151590811790915591519182527f17307eab39ab6107e8899845ad3d59bd9653f200f220920489ca2b5937696c3191016110f4565b6001600160a01b0383163b156112d257604051630a85bd0160e11b81526001600160a01b0384169063150b7a02906111f0908890889087908790600401612469565b6020604051808303816000875af192505050801561122b575060408051601f3d908101601f19168201909252611228918101906124a6565b60015b611294573d808015611259576040519150601f19603f3d011682016040523d82523d6000602084013e61125e565b606091505b50805160000361128c57604051633250574960e11b81526001600160a01b03851660048201526024016105e8565b805160208201fd5b6001600160e01b03198116630a85bd0160e11b146112d057604051633250574960e11b81526001600160a01b03851660048201526024016105e8565b505b5050505050565b60606112e482610c19565b50600082815260066020526040812080546112fe90612279565b80601f016020809104026020016040519081016040528092919081815260200182805461132a90612279565b80156113775780601f1061134c57610100808354040283529160200191611377565b820191906000526020600020905b81548152906001019060200180831161135a57829003601f168201915b50505050509050600061139560408051602081019091526000815290565b905080516000036113a7575092915050565b8151156113d95780826040516020016113c19291906124c3565b60405160208183030381529060405292505050919050565b6113e2846117fd565b949350505050565b6105be828260405180602001604052806000815250611871565b600082815260066020526040902061141c82826123a9565b506040518281527ff8e1a15aba9398e019f0b49df1a4fde98ee17ae345cb5f6b5e2c27f5033e8ce79060200160405180910390a15050565b60006001600160e01b0319821663780e9d6360e01b14806104f257506104f282611889565b808061148d57506001600160a01b03821615155b1561154f57600061149d84610c19565b90506001600160a01b038316158015906114c95750826001600160a01b0316816001600160a01b031614155b80156114dc57506114da8184610bc6565b155b156115055760405163a9fbf51f60e01b81526001600160a01b03841660048201526024016105e8565b811561154d5783856001600160a01b0316826001600160a01b03167f8c5be1e5ebec7d5bd14f71427d1e84f3dd0314c0f7b2291e5b200ac8c7c3b92560405160405180910390a45b505b5050600090815260046020526040902080546001600160a01b0319166001600160a01b0392909216919091179055565b60008061158d8585856118ae565b90506001600160a01b0381166115ea576115e584600980546000838152600a60205260408120829055600182018355919091527f6e1540171b6c0c960b71a7020d9f60077f6af931a8bbf590da0223dacf75c7af0155565b61160d565b846001600160a01b0316816001600160a01b03161461160d5761160d81856119a7565b6001600160a01b0385166116295761162484611a28565b6113e2565b846001600160a01b0316816001600160a01b0316146113e2576113e28585611ad7565b61165682826108f5565b6105be5760405163e2517d3f60e01b81526001600160a01b0382166004820152602481018390526044016105e8565b60608260006116958460026124f2565b6116a0906002612509565b67ffffffffffffffff8111156116b8576116b8611fd9565b6040519080825280601f01601f1916602001820160405280156116e2576020820181803683370190505b509050600360fc1b816000815181106116fd576116fd6122b3565b60200101906001600160f81b031916908160001a905350600f60fb1b8160018151811061172c5761172c6122b3565b60200101906001600160f81b031916908160001a90535060006117508560026124f2565b61175b906001612509565b90505b60018111156117d3576f181899199a1a9b1b9c1cb0b131b232b360811b83600f166010811061178f5761178f6122b3565b1a60f81b8282815181106117a5576117a56122b3565b60200101906001600160f81b031916908160001a90535060049290921c916117cc8161251c565b905061175e565b5081156113e25760405163e22e27eb60e01b815260048101869052602481018590526044016105e8565b606061180882610c19565b50600061182060408051602081019091526000815290565b905060008151116118405760405180602001604052806000815250610b9a565b8061184a84611b27565b60405160200161185b9291906124c3565b6040516020818303038152906040529392505050565b61187b8383611bba565b61070f3360008585856111ae565b60006001600160e01b03198216632483248360e11b14806104f257506104f282611c1f565b6000828152600260205260408120546001600160a01b03908116908316156118db576118db818486611c6f565b6001600160a01b03811615611919576118f8600085600080611479565b6001600160a01b038116600090815260036020526040902080546000190190555b6001600160a01b03851615611948576001600160a01b0385166000908152600360205260409020805460010190555b60008481526002602052604080822080546001600160a01b0319166001600160a01b0389811691821790925591518793918516917fddf252ad1be2c89b69c2b068fc378daa952ba7f163c4a11628f55a4df523b3ef91a4949350505050565b60006119b283610878565b6000838152600860209081526040808320546001600160a01b0388168452600790925290912091925090818314611a0957600083815260208281526040808320548584528184208190558352600890915290208290555b6000938452600860209081526040808620869055938552525081205550565b600954600090611a3a90600190612533565b6000838152600a602052604081205460098054939450909284908110611a6257611a626122b3565b906000526020600020015490508060098381548110611a8357611a836122b3565b6000918252602080832090910192909255828152600a90915260408082208490558582528120556009805480611abb57611abb612546565b6001900381819060005260206000200160009055905550505050565b60006001611ae484610878565b611aee9190612533565b6001600160a01b039093166000908152600760209081526040808320868452825280832085905593825260089052919091209190915550565b60606000611b3483611cd3565b600101905060008167ffffffffffffffff811115611b5457611b54611fd9565b6040519080825280601f01601f191660200182016040528015611b7e576020820181803683370190505b5090508181016020015b600019016f181899199a1a9b1b9c1cb0b131b232b360811b600a86061a8153600a8504945084611b8857509392505050565b6001600160a01b038216611be457604051633250574960e11b8152600060048201526024016105e8565b6000611bf283836000610c5f565b90506001600160a01b0381161561070f576040516339e3563760e11b8152600060048201526024016105e8565b60006001600160e01b031982166380ac58cd60e01b1480611c5057506001600160e01b03198216635b5e139f60e01b145b806104f257506301ffc9a760e01b6001600160e01b03198316146104f2565b611c7a838383611dab565b61070f576001600160a01b038316611ca857604051637e27328960e01b8152600481018290526024016105e8565b60405163177e802f60e01b81526001600160a01b0383166004820152602481018290526044016105e8565b60008072184f03e93ff9f4daa797ed6e38ed64bf6a1f0160401b8310611d125772184f03e93ff9f4daa797ed6e38ed64bf6a1f0160401b830492506040015b6d04ee2d6d415b85acef81000000008310611d3e576d04ee2d6d415b85acef8100000000830492506020015b662386f26fc100008310611d5c57662386f26fc10000830492506010015b6305f5e1008310611d74576305f5e100830492506008015b6127108310611d8857612710830492506004015b60648310611d9a576064830492506002015b600a83106104f25760010192915050565b60006001600160a01b038316158015906113e25750826001600160a01b0316846001600160a01b03161480611de55750611de58484610bc6565b806113e25750506000908152600460205260409020546001600160a01b03908116911614919050565b6001600160e01b03198116811461071e57600080fd5b600060208284031215611e3657600080fd5b8135610b9a81611e0e565b60005b83811015611e5c578181015183820152602001611e44565b50506000910152565b60008151808452611e7d816020860160208601611e41565b601f01601f19169290920160200192915050565b602081526000610b9a6020830184611e65565b600060208284031215611eb657600080fd5b5035919050565b80356001600160a01b0381168114611ed457600080fd5b919050565b60008060408385031215611eec57600080fd5b611ef583611ebd565b946020939093013593505050565b600080600060608486031215611f1857600080fd5b611f2184611ebd565b9250611f2f60208501611ebd565b9150604084013590509250925092565b60008060408385031215611f5257600080fd5b82359150611f6260208401611ebd565b90509250929050565b60008060408385031215611f7e57600080fd5b50508035926020909101359150565b838152606060208201526000611fa66060830185611e65565b905060018060a01b0383166040830152949350505050565b600060208284031215611fd057600080fd5b610b9a82611ebd565b634e487b7160e01b600052604160045260246000fd5b600067ffffffffffffffff8084111561200a5761200a611fd9565b604051601f8501601f19908116603f0116810190828211818310171561203257612032611fd9565b8160405280935085815286868601111561204b57600080fd5b858560208301376000602087830101525050509392505050565b600082601f83011261207657600080fd5b610b9a83833560208501611fef565b6000806040838503121561209857600080fd5b82359150602083013567ffffffffffffffff8111156120b657600080fd5b6120c285828601612065565b9150509250929050565b801515811461071e57600080fd5b600080604083850312156120ed57600080fd5b6120f683611ebd565b91506020830135612106816120cc565b809150509250929050565b6000806000806080858703121561212757600080fd5b61213085611ebd565b935061213e60208601611ebd565b925060408501359150606085013567ffffffffffffffff81111561216157600080fd5b8501601f8101871361217257600080fd5b61218187823560208401611fef565b91505092959194509250565b60006020808301818452808551808352604092508286019150828160051b87010184880160005b8381101561220957603f19898403018552815160608151855288820151818a8701526121e282870182611e65565b928901516001600160a01b03169589019590955250948701949250908601906001016121b4565b509098975050505050505050565b6000806040838503121561222a57600080fd5b61223383611ebd565b9150602083013567ffffffffffffffff8111156120b657600080fd5b6000806040838503121561226257600080fd5b61226b83611ebd565b9150611f6260208401611ebd565b600181811c9082168061228d57607f821691505b6020821081036122ad57634e487b7160e01b600052602260045260246000fd5b50919050565b634e487b7160e01b600052603260045260246000fd5b6c029b837b739b7b932b210313c9609d1b8152600082516122f181600d850160208701611e41565b91909101600d0192915050565b634e487b7160e01b600052601160045260246000fd5b600060018201612326576123266122fe565b5060010190565b60006020828403121561233f57600080fd5b5051919050565b60006020828403121561235857600080fd5b8151610b9a816120cc565b601f82111561070f57600081815260208120601f850160051c8101602086101561238a5750805b601f850160051c820191505b818110156112d057828155600101612396565b815167ffffffffffffffff8111156123c3576123c3611fd9565b6123d7816123d18454612279565b84612363565b602080601f83116001811461240c57600084156123f45750858301515b600019600386901b1c1916600185901b1785556112d0565b600085815260208120601f198616915b8281101561243b5788860151825594840194600190910190840161241c565b50858210156124595787850151600019600388901b60f8161c191681555b5050505050600190811b01905550565b6001600160a01b038581168252841660208201526040810183905260806060820181905260009061249c90830184611e65565b9695505050505050565b6000602082840312156124b857600080fd5b8151610b9a81611e0e565b600083516124d5818460208801611e41565b8351908301906124e9818360208801611e41565b01949350505050565b80820281158282048414176104f2576104f26122fe565b808201808211156104f2576104f26122fe565b60008161252b5761252b6122fe565b506000190190565b818103818111156104f2576104f26122fe565b634e487b7160e01b600052603160045260246000fdfea2646970667358221220f5a416a5a0e9efc3c1e157a738c25f73c5060a0b3c594d8d415bca8ba634d5eb64736f6c63430008140033",
  "linkReferences": {},
  "deployedLinkReferences": {}
}